:100000000C942A000C9434000C9434000C943400AA
:100010000C9434000C9434000C9434000C94340090
:100020000C9434000C9434000C9434000C94340080
:100030000C9434000C9434000C9434000C94340070
:100040000C9434000C9434000C9434000C94340060
:100050000C94340011241FBECFE5D8E0DEBFCDBF25
:100060000E9436000C945A000C94000087E087BB75
:1000700021E093E084E028BB3FEF46E151E13150BD
:1000800040405040E1F700C0000098BB3FEF44E320
:100090005CE0315040405040E1F700C0000088BBB8
:1000A0003FEF42E557E0315040405040E1F700C09B
:0800B0000000E1CFF894FFCF3E
:00000001FF
